:020000040800F2
:1000000070050020D5000008BD1600088314000804
:1000100000000000000000000000000000000000E0
:1000200000000000000000000000000005170008AC
:100030000000000000000000BF160008C9170008FB
:10004000E7000008E7000008E7000008E7000008F4
:10005000E7000008E7000008E7000008E7000008E4
:10006000E7000008E7000008E700000809030008AF
:10007000E7000008E7000008E7000008E7000008C4
:10008000E7000008E7000008E7000008E7000008B4
:10009000E7000008E7000008E7000008E7000008A4
:1000A000E7000008E7000008E7000008E700000894
:1000B000B91D0008E7000008E7000008E700000895
:1000C0000348854600F0A2F8004800475D1E00087E
:1000D000700500200448804704480047FEE7FEE71B
:1000E000FEE7FEE7FEE7FEE729180008C10000086A
:1000F00030B50B46014600202022012409E00D46C0
:10010000D5409D4205D31D469540491B2546954047
:1001100040191546521E002DF1DC30BD70B500248B
:100120002546002801DA01244042002901DA012590
:100130004942FFF7DDFFAC4200D04042002C00D026
:10014000494270BDF0B51FB40646002082B0054696
:100150004024019100901BE0019922460F46304651
:1001600000F020F8049A059B801A994110D310469C
:100170001946224600F039F8361A8F410197224677
:1001800001200021009F00F030F838184D41009008
:100190002046641E0028DFDC019B00982946324679
:1001A00007B0F0BD10B5202A04DB0846203AD04045
:1001B000002110BD0B46D340D0402024A21A91400C
:1001C0000843194610BDD2B201E00270401C491E1E
:1001D000FBD270470022F6E710B513460A460446E4
:1001E0001946FFF7F0FF204610BD10B5202A04DBAA
:1001F0000146203A9140002010BD914020239C1AD6
:100200000346E3401943904010BD0000064C012511
:10021000064E05E0E36807CC2B430C3C98471034AE
:10022000B442F7D3FFF750FFB01F0008D01F0008FB
:10023000F8B5044600200090206881688907890F7E
:10024000012905D10168C9072CD1C168090429D445
:100250008168154A102611400125002915D18168B1
:1002600029438160124811490068FFF741FF00E00F
:10027000401E00900028FBD100F0D8FB07460CE0A0
:1002800000F0D4FBC01B022807D9A06B3043A06349
:10029000E06B2843E0630120F8BD20680068C0439C
:1002A000C007EDD10020F8BD1700008040420F00CC
:1002B0005000002010B50121092000220903C006CA
:1002C00000F0ADFB10BD10B5012209201103C006DE
:1002D00000F0A5FB10BD10B501210920C902C00620
:1002E00000F098FB10BD10B5012109200022C902C1
:1002F000C00600F094FB10BD10B501220920D10208
:10030000C00600F08CFB10BD10B5024800F04CFA9E
:1003100010BD00002801002010B504460068054902
:1003200040181421FFF7E4FE800020640248E063D7
:1003300010BD0000F8FFFDBF000002407047000044
:10034000F8B50025044620340095227D012A3BD0D3
:100350000122227503689E68760776D43F4F4E6867
:10036000BE4254D09E6A0F78BA4016439E62012363
:10037000C26A1B079A421FD0012A1DD0022A1BD035
:10038000032A19D0042A17D0052A15D0062A13D01B
:10039000072A11D002688B6856697607760FB34238
:1003A0000AD05369DB08DB005361006842690B7AAD
:1003B0005B075B0F1A4342610868102806D01128BA
:1003C00004D0122802D045E00220F8BD244A9368E8
:1003D000102809D011280AD0012000060343936099
:1003E0000868102806D035E00120C005F6E7012096
:1003F0008005F3E71C481B490068FFF779FE0A21D6
:10040000484300E0401E00900028FBD122E0986A9B
:100410000E78B240904398620868102803D01128E3
:1004200001D0122816D10E498A68102807D0112849
:1004300008D00120000682438A600BE005E001201D
:10044000C005F8E701208005F5E7816B2022114304
:1004500081630125002020752846F8BD01100000A9
:100460000027014040420F00500000200068006C4F
:1004700070470000F8B500260446002805D0A06BA0
:1004800025462035002802D007E00120F8BD0020D5
:10049000E0632875204600F0A9F8A06B1022C00682
:1004A000002870DB2068816849076CD4A16B1301B8
:1004B000994302231943A16381688907890F0129A0
:1004C00005D10168C9070FD1C16809040CD4C168FE
:1004D00018239943A3681943C160206801696368C0
:1004E00089008908194301612068C1683D4B1940A2
:1004F000C160207E617E8003C9030843A17E4B0357
:100500001843A36A012B02D001231B0300E0002340
:100510001843E36818432369022B09D000231843CA
:100520002B79E57E5B0018430123012D02D00AE000
:100530000423F4E7002927D0A16B20252943A163D8
:10054000E16B1943E163E1690D46FF3DC23D02D015
:10055000256A294308432168CD680543CD600125FC
:10056000E16A2D07A94213D0012911D002290FD029
:1005700003290DD004290BD0052909D0062907D05D
:10058000072905D010E028E0012109040843DAE733
:1005900021684D69ED08ED004D6121684D69A78D19
:1005A0007F077F0F3D434D612168C9680E4D29408B
:1005B000814207D10020E063A06B80088000401CCE
:1005C000A06308E0A06B022188431043A063E06BA6
:1005D0001843E06301263046F8BDA06B1043A063CA
:1005E000F8E700001902FEFFE7FF3F8310B586B071
:1005F000044614216846FFF7EDFD10492068884243
:1006000019D10F48826941150A43826182690A4003
:100610000592426909020A43426140690840059017
:10062000802000900320019000200290092069465C
:10063000C00600F043F906B010BD000000240140E0
:1006400000100240F8B504464069254620350E46A4
:1006500008280BD02068C068C00709D0A06B2021F3
:100660000843A063002028750120F8BD082700E09A
:100670000C2700F0DBF9009011E0701C0FD0002E69
:1006800005D000F0D3F90099401AB04207D9A06B09
:1006900004210843A063002028750320F8BD2068CA
:1006A00000683842E9D0A06B012149020843A063E9
:1006B0002068C16809058A0F0C21002A1AD1A27E80
:1006C000002A17D10268120714D582685307012245
:1006D000002B08DB43688B434360A06B13029843F5
:1006E0001043A06306E0A06B20231843A063E06BD7
:1006F0001043E063207E002801D1206801600020C3
:10070000F8BD000070B504462168002089684907DB
:1007100021D425462035297D01291CD001212975A8
:10072000617E012904D02046FFF782FD002811D107
:10073000A16B0A4A1140FF2201321143A16300213B
:10074000E163297522681C21116021688A680423ED
:100750001A438A6070BD022070BD0000FEF1FFFFE9
:1007600070B50024014620314A78022A03D00421C2
:100770008163012416E0026813680E25AB43136001
:10078000026813685B085B0013600122056C134666
:10079000AB40C56B6B604A7000220A70416B002948
:1007A00000D08847204670BDF0B4C16B0D68016869
:1007B0000C680422066C1346B3402B420DD063072D
:1007C0000BD50B689B0602D40B6893430B60016C3E
:1007D0008A40C16B4A60C16A19E00227B7400246ED
:1007E0002F4001232032002F15D0A70713D50C6806
:1007F000A40604D40C680A25AC430C605370036C47
:1008000002219940C36B596000211170816A00294F
:1008100016D0F0BC08470827B7402F4210D0240755
:100820000ED50C680E25AC430C60046C1946A14033
:10083000C46B61608363537000211170016BE6E744
:10084000F0BC704770B5040021D002212046203052
:1008500005464170226811680E48A368014060682F
:1008600026691843E3683343184363691843A3694F
:100870001843E3691843084310602046FFF74CFD16
:100880000021A163012068702970084670BD012015
:1008900070BD00000FC0FFFF70B5044600F0C6F841
:1008A0000546601C02D004480078241800F0BEF809
:1008B000401BA042FAD370BD44000020F8B50023CD
:1008C00093E0224601249C40A44622407ED04C68FE
:1008D000022C01D0122C0CD1DC08A40027183C6A91
:1008E0005D07ED0E0F26AE40B4430E69AE402643C1
:1008F0003E6205685E000324B4400F79A543BF073C
:10090000BF0FB7402F4307604D68012D05D0022D62
:1009100003D0112D01D0122D0ED18568CF68A543CB
:10092000B7402F43876047686546AF430D79ED06B2
:10093000ED0F9D403D434560C568A5438C68B440BC
:100940002C43C4604C68E4004ED52B4CA5690126AD
:100950003543A561A4699D0834400094274CAD003F
:100960002F19BC689D072E0F0F25B540AC430925F4
:10097000ED06A84201D1002514E0214DA84201D185
:1009800001250FE01F4DA84201D102250AE01E4DAE
:10099000A84201D1032505E01C4DA84201D1042540
:1009A00000E00525B5402543BD60194C25684E681B
:1009B0009543F60300D51543256065684E68954359
:1009C000B60300D515436560A56800E00CE04E68ED
:1009D0009543F60200D51543A560E5684E6895433A
:1009E000B60200D51543E5605B1C0A681446DA4080
:1009F00000D066E7F8BD0000001002400000014092
:100A00000004004800080048000C0048001000489E
:100A1000000401400069084000D001207047002A0E
:100A200001D0816170478162704700000148806891
:100A3000704700004400002002488168027889184D
:100A4000816070474400002010B5064801681022FC
:100A500011430160002000F007F800F027F80020A3
:100A600010BD00000020024070B504460D4D7D20F1
:100A70002978C000FFF73CFB01460B480068FFF7F0
:100A800037FB00F0ADFB002809D1042C07D200226F
:100A90002146401E00F02AF800206C6070BD012045
:100AA00070BD0000440000205000002008B5084838
:100AB0008169012211438161816911400091C269FC
:100AC00001040A43C261C0690840009008BD0000EB
:100AD00000100240002805DBC106C90E0120884035
:100AE000014908607047000000E100E010B501F026
:100AF00083F910BDF8B504460068434DC00352D5D4
:100B0000E8690026C00007D4E96928040143E961C7
:100B1000E9690140012600913C480168C90510D4EB
:100B20000168821511430160FFF780FF074604E06A
:100B3000FFF77CFFC01B642824D834480068C00538
:100B4000F6D5286A03273F02384020D06168394033
:100B500081421CD0286A2A6AB843012109040A4349
:100B60002A622A6A8A432A622862C0070FD0FFF7E6
:100B70005DFF009008E0FFF759FF0099411A2448F3
:100B8000814201D90320F8BD286A8007F3D5286A7D
:100B90006168B84308432862002E04D0E869012147
:100BA00009078843E8612078C00705D0286BA16851
:100BB00080088000084328632078800706D5286BCA
:100BC000032109048843E1680843286320788006EC
:100BD00005D5286B102188432169084328632068C4
:100BE000800305D5286B80218843A16908432863C9
:100BF0002088400505D5286B40218843616908435A
:100C000028630020F8BD0000001002400070004082
:100C100088130000F8B50F4606005FD03D4D2868E8
:100C2000C007C00FB84209D22868400840003843C6
:100C300028602868C007C00FB8424FD13068364CD2
:100C400081070CD5400704D56068072109020843D5
:100C500060606068F0218843B16808436060307864
:100C6000C0072CD07068012810D0022811D00328AA
:100C700012D021688907002930DA61688908890063
:100C800001436160FFF7D2FE009011E02168890303
:100C9000F1E721688901EEE7616BC903EBE7FFF734
:100CA000C5FE0099411A1D48814201D90320F8BDB3
:100CB00060680C210840716889008842EFD128687B
:100CC000C007C00FB8420BD928684008400038431D
:100CD00028602868C007C00FB84201D00120F8BDC5
:100CE0003078400706D56068072109028843F1681B
:100CF0000843606000F028F86168094A0906090F96
:100D0000515CC840074908600020FFF7ADFE002095
:100D1000F8BD0000002002400010024088130000CF
:100D2000861F0008500000200448054900684968F3
:100D3000044A4905490F515CC840704750000020E3
:100D400000100240961F000830B519A30FCB89B0E0
:100D50006C460FC41AA30FCB0FC41D4A51680C2058
:100D60000B4603401B48042B05D01B4D082B04D019
:100D70000C2B00D1284609B030BD8B021B0F6C46EE
:100D8000E45CD26A04AB1207120FC9039A5C890FA4
:100D9000022901D0032901D0002301E000232846C5
:100DA0000021FFF7CFF9214601F00EF8E3E700003C
:100DB00002030405060708090A0B0C0D0E0F10109C
:100DC0000102030405060708090A0B0C0D0E0F109B
:100DD0000010024000127A00006CDC02FEB5040034
:100DE00070D02078F94EFA4DC00748D068680007E7
:100DF000800F01281FD068680007800F022804D1E7
:100E00006868C003800F022815D06168012919D0D5
:100E100001208004002901D0052917D02968B14399
:100E20002960296881432960606800281BD0FFF78A
:100E3000FDFD074613E02868800320D56068002880
:100E4000CED01CE0286830432860EDE729680143D4
:100E50002960F7E7FFF7EAFDC01B642870D828680F
:100E60008003F7D50BE0FFF7E1FD074604E0FFF74D
:100E7000DDFDC01B6428F1D828688003F7D42078F2
:100E800080073FD568680007800F14D068680007A6
:100E9000800F022804D16868C003800F01280AD09F
:100EA000E068002828681ED0012108432860FFF769
:100EB000BDFD07460CE0286880070CD5E0680128D6
:100EC00000D108E080E1FFF7B1FDC01B0228C5D8C2
:100ED00028688007F7D52868F82188432169C90068
:100EE000084328600EE0400840002860FFF79EFDA0
:100EF000074604E0FFF79AFDC01B0228AED8286819
:100F00008007F7D42078000723D5E0690028686AB5
:100F10000FD0012108436862FFF788FD074604E00F
:100F2000FFF784FDC01B022898D8686A8007F7D5B0
:100F30000FE0400840006862FFF778FD074605E0D3
:100F4000C3E0FFF773FDC01B022887D8686A8007DB
:100F5000F7D4207804274007002861DA00200190A8
:100F6000E869C00008D4E969B8060143E961E969A4
:100F7000014001200091019096480168C90511D4F3
:100F80000168821511430160FFF750FD009005E0F4
:100F9000FFF74CFD0099401A642898D88D480068E6
:100FA000C005F5D5A06801280AD0002801D0052881
:100FB00011D0286A400840002862286AB84302E03D
:100FC000286A012108432862A068002812D0FFF790
:100FD0002DFD00900AE0286A38432862F0E7FFF709
:100FE00025FD0099411A7C4881426ED8286A800705
:100FF000F5D50DE0FFF71AFD009006E0FFF716FDAE
:101000000099411A744881425FD8286A8007F5D454
:101010000198002804D0E969012000078143E961B3
:101020002078C00635D5606901280CD0401D686B5A
:1010300024D038436863686B400840006863FFF75A
:10104000F5FC074622E0686B38436863686B012152
:1010500008436863FFF7EAFC074604E0FFF7E6FC95
:10106000C01B022831D8686B8007F7D5686BF82160
:101070008843A169C900084368630AE0B84368630C
:10108000F4E7FFF7D3FCC01B02281ED8686B80076B
:10109000F7D42078800637D568680007800F0328CA
:1010A00014D068680007800F022804D16868C00364
:1010B000800F03280AD0206A0028686B16D03043BE
:1010C0006863FFF7B3FC06460CE062E0686BC003A0
:1010D0001AD5206A012877D116E0FFF7A7FC801BFC
:1010E000022856D8686BC003F7D50DE0B04368639B
:1010F000FFF79CFC064604E0FFF798FC801B0228E3
:1011000047D8686BC003F7D4606A002866D0696866
:101110000907890F022942D00126360602282868CD
:1011200005D0B0432860FFF781FC044633E0B043AC
:101130002860FFF77BFC074604E0FFF777FCC01B45
:10114000022826D828688001F7D4E86A216B0009B4
:1011500000010843E862A16AE06A084369687B22EB
:10116000D203914308436860286830432860FFF742
:101170005DFC044604E0FFF759FC001B022808D878
:1011800028688001F7D529E0FFF750FC001B0228F2
:1011900001D90320FEBD28688001F5D41EE0012896
:1011A000F8D06868E96A0322D203A36A02409A422F
:1011B0000AD10907226B090F914205D10F21890439
:1011C0000840E16A884209D00120FEBD000001000C
:1011D0000010024000700040881300000020F4E777
:1011E000094910B5401E884201D9012010BD074CA5
:1011F00060610321081F00F0FFFD0020A0610720AF
:101200002061002010BD0000FFFFFF0000E000E0B3
:1012100070477047F8B502680446D0691168936852
:10122000524D05402E462025002E68D0DE07F60FD1
:10123000FF2721370F40374375D0C70706D0CF05AA
:1012400004D501271762E26F3A43E267820708D5A7
:10125000DA0706D0276802223A62E26F04273A438F
:10126000E267420708D5DA0706D0236804221A622B
:10127000E26F02231A43E267020709D50A462A40B1
:10128000324305D0236808221A62E36F1343E367F1
:10129000020508D54A0106D501222368D2021A6246
:1012A000E26F2A43E267E26F002A30D0800606D55B
:1012B000880604D5216E002901D020468847E06FBA
:1012C00021688968490602D42821084224D0204692
:1012D00000F056FC20688168490619D581684022D3
:1012E00091438160E06E002812D021494163E06E95
:1012F000FFF736FA00280AD0E06E416B06E086065A
:1013000011D58E060FD5216E1DE020468847F8BD09
:101310002046FFF77EFFF8BD2046FFF77AFF00204A
:10132000E067F8BDFFE7C60208D55B0206D50120DD
:10133000000510622046FFF76BFFF2E7030605D5B4
:101340000B0603D5616E0029DFD1EAE74006E8D538
:101350004806E6D51368204640218B431360656735
:101360000021616600F08CF8DBE700000F08000048
:101370006D1B000810B5040003D0606F002802D078
:1013800007E0012010BD002170200155204600F02B
:1013900027F8242060672068016849084900016037
:1013A000204600F0FDFB0128ECD0606A002802D046
:1013B000204600F045FB206841680922D202914393
:1013C0004160206881682A22914381602068016819
:1013D000012211430160204600F098FB10BD00007F
:1013E00070B586B0064614216846FEF7F3FE204924
:1013F0003068884239D11F49CA690120400402433C
:10140000CA61CA69024005924A6902434A61496950
:101410000025014005910C20009002200190012040
:1014200004900920029503956946C006FFF746FA25
:101430001148124C21C42560A5608020E5606060E1
:101440002020656120610D48083CFFF7FBF900286A
:1014500001D0FEF773FFF466002211461C2066627D
:10146000FFF744FB1C20FFF735FB06B070BD000002
:1014700000440040001002405800024028010020B3
:101480007047FEE770B5334C0121A068052800D1F4
:10149000A160A069401CA061032804D12069401EFE
:1014A00020610020A0612069002800D16160FF2137
:1014B00001310920A268C0068E00274D012A20D0E4
:1014C000022A28D0032A30D0042A19D10122FFF79A
:1014D000A6FA002231462846FFF7A1FA0122102180
:1014E0002846FFF79CFA012220212846FFF797FAA9
:1014F000002208212846FFF792FAA068401CA0604D
:1015000070BD0122FFF78BFA012231462846FFF712
:1015100086FA0022E3E70122FFF781FA0122314631
:101520002846FFF77CFA002208E00122FFF777FA4D
:10153000002231462846FFF772FA01221021284680
:10154000FFF76DFA002220212846FFF768FA0122F2
:10155000CFE7000000000020000400480EB5002185
:101560001448009101910291114A4160026081602A
:10157000012204230C300EC0017041708170FF23E2
:10158000C170C23343600346816008331971026140
:101590001838FEF76FFF072000900120000301902C
:1015A0000320029069460348FEF7CAFE0EBD000004
:1015B000002401405C000020F0B587B0142168468B
:1015C000FEF708FE2C4842690121C9040A43426122
:1015D00042690A4005924269C9000A434261426970
:1015E0000A400592426949110A43426142690A4030
:1015F0000592426949000A4342614069C925084091
:101600006D01AF050590002229463846FFF707FA1D
:101610001A4E002231461A48FFF701FA0120400312
:101620000090184800240190694602941648FFF77C
:1016300045F90095012502946946384601950394C1
:10164000FFF73CF980200090032001906946029446
:101650003846FFF733F906206A4631C26946084822
:10166000FFF72CF90294694605480096019503940A
:10167000FFF724F907B0F0BD0010024038C40000A5
:1016800000040048000021100008004810B50A4876
:10169000084901604B21C901416000218160C1609E
:1016A00001618161C1610C22016242614162FFF707
:1016B00061FE10BD004400409C0000207047704750
:1016C00010B502210548FFF7A5F9002804D1044808
:1016D000022141600021816110BD0000000400482A
:1016E0000000002010B504210448FFF793F90028FA
:1016F00002D103490120486010BD000000040048E9
:10170000000000207047000070B52C4C0121C90377
:1017100060682B4D4E10012810D002280DD10022F8
:101720002846FFF77CF9012231462846FFF777F972
:10173000FFF7A8FE0220FFF7AFF870BD0122284690
:10174000FFF76DF9002231462846FFF768F9FF21BF
:10175000092000220131C006FFF761F901210022B2
:1017600089022846FFF75BF9002210212846FFF77F
:1017700056F9002220212846FFF751F900220821BE
:101780002846FFF74CF90F48FEF7BCFF01210D4832
:10179000FEF758FF002801D0206904E00948FEF751
:1017A00065FE400020610A2802D80A20206170BD31
:1017B0007D2189018842FAD3216170BD000000209B
:1017C000000400485C00002010B5FFF735F910BD9B
:1017D00010B598B034216846FEF7FCFC00240D9447
:1017E0000E940F941C2111A81094FEF7F3FC3020E6
:1017F00000900120089005901020069009946846FA
:10180000FFF7ECFA07200D9003200E900F940121B2
:1018100010940DA8FFF7FEF902201190149411A85E
:10182000FFF768F918B010BD704770B509240122A0
:10183000E40611032046FFF7F2F80122D5022946FB
:101840002046FFF7ECF87D20C00000F095FB002259
:1018500029462046FFF7E3F870BDF8B501240925B5
:101860002403ED06002221462846FFF7D8F87D26FE
:10187000F600304600F080FB67100022394628460B
:10188000FFF7CDF8304600F077FB012221462846CD
:10189000FFF7C5F8304600F06FFB012239462846B5
:1018A000FFF7BDF8F8BD70B57D2605460024F600AB
:1018B000FEF700FDE80702D0FEF71EFD01E0FEF78F
:1018C00012FD304600F058FB6D08FEF7FCFC304678
:1018D00000F052FB641CE4B2082CE9D3FEF7EAFCEA
:1018E000304600F049FBFEF7FEFCFEF7F4FCFEF785
:1018F00003FDFEF7E8FC304600F03EFBFEF7DAFCA5
:1019000070BD000001498830C87070475400002045
:1019100010B500247F21204600F044F8641CE4B296
:10192000042CF7D310BD000007494978012908D0DD
:1019300000217F2803D0054A105C4018C1B248B28C
:1019400070478021F5E70000540000209E1F00082A
:1019500070B5124A5178002901D0802300E000239D
:1019600000210F4E0D46445C7F2C15D0345DE418E9
:101970004454445C80344454491CC9B20429F2D311
:101980009178012907D11179032904D0435C803370
:1019900043540320107170BD4554EAE75400002001
:1019A0009E1F000870B50446C8B2FFF7BDFF05468C
:1019B000FFF73BFF4420FFF776FFFFF74EFFFFF7EF
:1019C00034FF2046C0210843FFF76DFFE8B2FFF760
:1019D0006AFFFFF742FFFFF728FF0348C078FFF7D1
:1019E00062FFFFF73AFF70BD54000020F8B569466A
:1019F00000B200F077FA6846FFF7AAFFFFF715FF7D
:101A00004020FFF750FFFFF728FFFFF70EFF0B4DB9
:101A10002878FFF748FF00246E46305DFFF743FF4C
:101A2000641CE4B2042CF8D3FFF717FFFFF7FDFEA8
:101A3000E878FFF738FFFFF710FFF8BD54000020EB
:101A400010B5818CC90707D001684A6801235B047F
:101A50009A43836A1A434A60818C890707D50168D3
:101A60004A6801231B049A43C36A1A434A60818C63
:101A7000490707D501684A6801239B049A43036B11
:101A80001A434A60818C090707D501684A68012317
:101A9000DB039A43436B1A434A60818CC90607D51E
:101AA0000268916801231B039943836B194391607A
:101AB000818C890607D501688A6801235B039A43F4
:101AC000C36B1A438A60818C490612D503685A6831
:101AD00001210905046C8A4322435A60026C8A4240
:101AE00007D10268516803235B059943436C19438E
:101AF0005160818C090607D501684A680123DB041F
:101B0000806C9A4302434A6010BD0000F8B500267D
:101B10000446C667FEF78AFF054620680068124F34
:101B2000000709D501212B460022490520460097D0
:101B300000F0F4F800280DD12068006840070BD5AC
:101B400001212B46002289052046009700F0E6F887
:101B5000002801D00320F8BD20206067A067603412
:101B600026740020F8BD0000FFFFFF0110B5406A99
:101B70000022014640314A834A82FFF74AFB10BDEA
:101B800001680A68FF2321339A430A6001688A6862
:101B9000520852008A602021816700210166704747
:101BA00070B5044680682169E269084361690025CF
:101BB00011432268084311684F4B194001431160DB
:101BC00021684868032212039043E268104348608A
:101BD000A169206A2268084391680B231B0299437C
:101BE00001439160454B0122206845491204984207
:101BF0000AD1086B8007800F23D0012814D0022857
:101C000014D003281CD10DE03E4B984210D1086B34
:101C100003210904084014D0801A05D0801A05D089
:101C200090420DD102200CE004200AE0082008E0D8
:101C30003549884202D03549884201D1002000E070
:101C400010200123E169DB03314E994229D100289C
:101C500006D0022807D004281AD0082845D11DE054
:101C6000FFF762F816E061682A4A48088018FEF714
:101C70003FFA80B201461039B14236D824490246B3
:101C8000491C0A400007410F20681143C1602DE044
:101C9000FFF75AF8616840004A08E7E761684808BA
:101CA000E4E7002806D0022807D0042813D008282B
:101CB0001BD116E0FFF738F80FE06168164A4808B4
:101CC0008018FEF715FA80B201461039B1420CD8DF
:101CD0002168C8600AE0FFF737F861684A08101801
:101CE000EFE761684808C018EBE70125002020668F
:101CF0006066284670BD0000F369FFEF00380140C0
:101D0000001002400044004000480040004C0040E9
:101D1000EFFF00000024F40000127A00FFB581B04C
:101D200005460F46044660350A9E38E0701C36D0E2
:101D3000FEF77CFE0499401AB04221D8002E1FD035
:101D40002068016849072AD5C069C043000526D428
:101D500001202168C002086220680168FF22A132C8
:101D60009143016020688168490849008160202012
:101D70006067A067E06700202874032005B0F0BD0D
:101D800020680168FF22A1329143016020688168C8
:101D900049084900816020206067A067EBE7206860
:101DA000C1693846884305D0002103988142BDD0DF
:101DB0000020E3E70121F8E710B50248FFF72AFA0F
:101DC00010BD00009C000020F8B5040C8BB2264624
:101DD00082B25E430D0C1046370C5843360480190E
:101DE0000021794116466E43370C3604801979413B
:101DF00026466E438919F8BD8307FF22DB0E9A4001
:101E00008907090E9940002808DB830809489B00D0
:101E10001B18186890430843186070470007000FAC
:101E20000838830804489B001B18D869904308436E
:101E3000D861704700E400E000ED00E002E008C86F
:101E4000121F08C1002AFAD170477047002001E034
:101E500001C1121F002AFBD17047000008B5FEF730
:101E6000F3FDFFF7B5FCFFF7A7FB1B484169012213
:101E700011434161406910400022009011460B203F
:101E8000FEF734FE0B20FEF725FEFFF767FBFFF79A
:101E9000FDFBFFF73DFD114C2078FFF733FD104DA2
:101EA000FFF70EFCFFF71EFCFFF72EFCE068002892
:101EB0000AD02946401CFEF731F9E160552120691E
:101EC000FEF716F96061EBE76069FFF78FFDE068E8
:101ED000401CE060F2E7000000100240000000201B
:101EE00010270000F8B50C462049214A41189142BC
:101EF0003BD2204D002816DA102121704004400CFE
:101F00006421FEF70BF9C6B2084666700A21FEF797
:101F100005F9C2B2A270E1706879002823D0002EC2
:101F200021D100201BE07D21C900FEF7F7F8C7B2E0
:101F3000084627706421FEF7F1F8C6B208466670BD
:101F40000A21FEF7EBF8C2B2A270E17068790028AE
:101F500009D0002F07D100202070002E03D160701F
:101F6000002A00D1A07001206871F8BDE7030000CD
:101F7000F72A000054000020002101E000BF491CA6
:101F80008142FBD370470000000000000000010206
:101F900003040607080900000000010203043F06CD
:101FA0005B4F666D7D077F6F777C395E797140008E
:101FB000D01F0008000000205C0000003C1E00084C
:101FC0002C2000085C000020140500004C1E0008B6
:101FD00007000000010000000100000000000000F8
:101FE000000000000000000000000000506F746559
:101FF0006E636A6F6D6574723A2020202020205332
:1020000074617475733A20202020202043796B6C12
:102010003A20000001000000040000000000000061
:0C20200000127A00C00101000000000066
:04000005080000C12E
:00000001FF
